:020000040800F2
:10000000880E002049010008B1270008B922000825
:100010008526000861070008D92E000800000000AE
:100020000000000000000000000000009928000807
:100030009B07000800000000B32700089B28000869
:100040006301000863010008630100086301000800
:1000500063010008630100086301000863010008F0
:1000600063010008630100086301000863010008E0
:1000700063010008650700086301000863010008C8
:1000800063010008630100086301000863010008C0
:1000900063010008630100086301000863010008B0
:1000A00063010008630100086301000863010008A0
:1000B0006301000863010008630100086301000890
:1000C0006301000863010008630100086301000880
:1000D0006301000863010008630100088D2E000819
:1000E0006301000863010008630100086301000860
:1000F0006301000863010008630100086301000850
:10010000630100086301000863010008630100083F
:100110006301000863010008630100080129000869
:10012000630100086301000863010008630100081F
:10013000DFF810D000F034FA00480047B13300086F
:10014000AFF30080880E002006488047064800472D
:10015000FEE7FEE7FEE7FEE7FEE7FEE7FEE7FEE777
:10016000FEE7FEE7FD28000831010008202A04DB35
:10017000203A21FA02F00021704721FA02F3D04020
:10018000C2F120029140084319467047D2B201E003
:1001900000F8012B491EFBD270470022F6E710B58C
:1001A00013460A4604461946FFF7F0FF204610BDE5
:1001B0002DE9FE4F804681EA0300C00F0C460090F7
:1001C00021F0004123F00045B8EB0200A94105D21F
:1001D0004046214690461C460B46024623F000400E
:1001E000104347D0270DC7F30A00C3F30A5102900A
:1001F000401A019040286BDAC3F3130040F4801BCF
:100200000098924620B10023D2EB030A63EB0B0B5C
:1002100001985946C0F14002504600F043F90646A5
:100220000D4650465946019A00F04BF910EB080074
:100230006141002487EA115284EAE7731A4340D0EF
:10024000009A62B3019A012A4FEA075215DC001B9B
:1002500061EB02014FF0004202EA0752CDE9004291
:10026000001C41F5801132462B4600F04BF903B0DB
:10027000BDE8F08F40462146F9E7001B61EB020123
:10028000001C41F5801300185B412018A2F50017EF
:1002900047EB030140EAD570B6196D4111E06D08D6
:1002A0004FEA360645EAC0754FEA0752001B61EB7C
:1002B0000201001C41F5801149084FEA3000001985
:1002C000514132462B4603B0BDE8F04F00F00BB968
:1002D0000098012240000023D0EB020263EBE073A0
:1002E000009821464FEAE074B8EB000061EB04018E
:1002F000E9E783F000435BE781F0004158E72DE92F
:10030000FE4F81EA030404F0004421F00041009410
:100310004FF0000B23F0004350EA01045ED052EA94
:1003200003045BD0C3F30A54C1F30A552C44A4F26E
:10033000F3340194A0FB0254C1F3130141F4801182
:10034000C3F3130343F4801301FB024400FB034E89
:10035000840A970A44EA815447EA8357A4FB076852
:1003600002958D0A05FB07854FEA932C04FB0C547C
:100370002705029D4FEA065847EA1637B5EB0805F0
:100380006EEB070C870E920E47EA811742EA831242
:10039000A7FB0201B6EB0B0164EB00042B0D43EA53
:1003A0000C335E1844EB1C50DA465146E7FB020161
:1003B000C5F313044FEA0B3343EA14534FEA0432F4
:1003C000019C43EA0603A4F10C040294009CCDE9CD
:1003D00000B400F097F803B0BDE8F08F00200146AC
:1003E000F9E70EB5C10F80EAE0700844CA070021A2
:1003F00040F233438DE80E000A460B4600F082F8C7
:1004000003B000BD70B5C1F30A5201F000450024ED
:10041000C1F3130140F2FF3341F480119A4201DA33
:10042000002070BD40F233439A42A2F2334203DC13
:100430005242FFF79BFE00E090402C43F1D0404237
:1004400070BD2DE9F05F0546002092469B46884628
:100450000646814640241BE0284641464746224640
:10046000FFF784FE53465A46C01A914110D31146F5
:100470001846224600F016F82D1A67EB01084F4681
:1004800022460120002100F00DF817EB00094E4133
:10049000201EA4F10104DFDC484631462A464346CB
:1004A000BDE8F09F202A04DB203A00FA02F1002088
:1004B00070479140C2F1200320FA03F319439040A2
:1004C0007047202A06DBCB17203A41FA02F043EAB4
:1004D000E07306E041FA02F3D040C2F120029140FD
:1004E00008431946704710B5141E73F1000408DA6A
:1004F000401C41F1000192185B411A4301D120F0E8
:10050000010010BD2DE9F04D92469B4611B1B1FAA4
:1005100081F202E0B0FA80F220329046FFF7C2FF8B
:1005200004460F4640EA0A0041EA0B0153465A4688
:10053000084313D0114653EA010019D0C8F1400214
:100540005046FFF713FE05460E46504659464246B2
:10055000FFF7A8FF084305D0012004E020463946F4
:10056000BDE8F08D0020054346EAE0762C43374392
:100570000A986305E40AA0EB08000022FD0A44EA99
:1005800047540A3002D500200146E9E70105101959
:100590006941DDE9084500196941BDE8F04DA2E770
:1005A000064C074D06E0E06840F0010394E80700C0
:1005B00098471034AC42F6D3FFF7BEFDAC340008C8
:1005C000CC34000870B58C1810F8015B15F00703E7
:1005D00001D110F8013B2A1106D110F8012B03E0DC
:1005E00010F8016B01F8016B5B1EF9D12B0705D4E4
:1005F0000023521E0DD401F8013BFAE710F8013B2D
:10060000CB1A921C03E013F8015B01F8015B521E48
:10061000F9D5A142D8D3002070BD000070B50446C2
:1006200000688168C943C90717D1816821F00101B9
:10063000816000F0A7FD05460AE000BF00F0A2FDC2
:10064000401B022804D920688068C043C00706D038
:1006500020688068C043C007F0D0002070BDA06A49
:1006600040F01000A062E06A40F00100E06201206A
:1006700070BD10B50146406A826A12F0500F05D075
:10068000006A026BBDE8104008461047816A41F4D9
:100690000071816201688968C1F3424107290CD168
:1006A000017B51B9816A21F480718162816AC90438
:1006B00003D4816A41F00101816200F0EFF810BDBE
:1006C00010B5406A816A41F040018162C16A41F01F
:1006D0000401C16200F0E4F810BD10B5406A00F0FA
:1006E000DEF810BDF8B50026044600960068816863
:1006F000C943C9072DD0816841F0010181601648C6
:1007000016490068B0FBF1F000E0401E00900028A0
:10071000FBD100F037FD054616E000BF00F032FDCA
:10072000401B022810D920688068C043C0070BD046
:10073000A06A40F01000A062E06A40F00100E062B0
:1007400084F824600120F8BD20688068C043C00799
:10075000E4D10020F8BD0000D004002040420F008A
:10076000FEE70000014800F071BA00000406002016
:1007700030B590F840500124AC40C56B6C60046803
:1007800063604368102B036803D099600068C260FF
:1007900030BD9A600068C16030BD704772B6FEE738
:1007A000F8B50024009490F824202546012A12D0A0
:1007B000012280F824204A681F23072A0DD20668E8
:1007C000776B521E02EB820293409F430B6893406B
:1007D0001F43776319E00220F8BD06680D2A0AD28C
:1007E000376BD21F02EB820293409F430B6893400A
:1007F0001F43376309E0F76A0D3A02EB8202934028
:100800009F430B6893401F43F7620A6807230668FB
:100810000A2A0AD3F7680A3A02EB420293409F433E
:100820008B6893401F43F76008E0376902EB420290
:1008300093409F438B6893401F4337610A68102A97
:1008400001D0112A20D1124B02689A4217D1936825
:100850001B0219D4936843F40003936009681029BC
:1008600012D10C490C4A0968B1FBF2F101EB81018C
:10087000490000E0491E00910029FBD104E0816A93
:1008800041F020018162012480F824502046F8BD07
:1008900000240140D004002040420F007047704700
:1008A000704700002DE9F04104004FF000057FD0B3
:1008B000A06A002628B9E66284F82460204600F089
:1008C00081F82046FFF7AAFEA16AC90600D420B12C
:1008D000A06A40F01000A0626AE0A16A21F4885189
:1008E00041F00201A162334923688B42E16904D1DE
:1008F000B1F5402F01D14FF40021277B4FF4807CCC
:1009000041EA470261680A43A168614508D00129AC
:1009100006D0002194F814E0BEF1010F02D00AE0E5
:100920006146F7E7C7B1A76A47F02007A762E76A01
:1009300047F00107E7625F6827F469470F435F608C
:10094000236899681C4F394011439960A16861453B
:100950000BD0012909D00CE0DFF860E0A7690EEBAD
:1009600047370F4347F40061E5E7218A0D05A5F5F8
:1009700080152168CB6A23F470032B43CB62216876
:1009800089680F4B1940914208D1E662A16A21F0B3
:10099000020141F00101A162BDE8F081A06A20F0EE
:1009A000020040F01000A062E06A40F00100E06246
:1009B0000120F1E7003C0140FDF7E1FF00E0FFFF0F
:1009C000FE0E1FFF704700002DE9F04789460446E0
:1009D0003B4900683B4F0E1D9046884201D0B8420B
:1009E00007D1306810F4702F03D001252846BDE8E8
:1009F000F08794F8240001280CD0012084F824000A
:100A00002046FFF76FFE05004FF0000004D084F889
:100A10002400EBE70220EAE7A16A40F60162914375
:100A200041F48071A1622168B94218D1326812F490
:100A3000702F14D0A16A41F48011A1623168490578
:100A400005D5A16A21F4005141F48051A162A16A47
:100A5000C9040AD5E16A21F00601E16206E0A26A52
:100A600022F48012A2624968E9E7E06284F8240077
:100A7000216A15488862216A1448C862216A1448AC
:100A8000086321686FF0020008602068816841F403
:100A900080718160216843464A464C31206A00F0EB
:100AA00037FA20688168C1F342410729816803D081
:100AB00041F48011816099E741F4A001FAE7000058
:100AC000002401400028014073060008DB060008EE
:100AD000C106000810B590F821100022022905D0A7
:100AE0000421816380F82020012010BD01680B687B
:100AF00023F00E030B6001680B6823F001030B6009
:100B000090F84030C46B012101FA03F3636080F870
:100B1000211080F82020104610BD00002DE9F05F64
:100B200090F821100024022903D0042181630124BC
:100B300085E001680A6822F00E020A6001680A680E
:100B400022F001020A603F4E3E4FB215DFF8F4C0BA
:100B5000DFF8F090DFF8ECA0DFF8E8B0DFF8E4E0D1
:100B60000168783F13011502ACF1640CA9F150093A
:100B7000AAF13C0AABF1280BAEF1140E4FF4801829
:100B8000B14227D9B9420ED0614512D049451DD096
:100B9000514518D0594518D0714501D1424615E04C
:100BA000294EB14201D1012210E0274E1436B14244
:100BB00001D110220AE0244E2836B14206D0224A42
:100BC0003C32914201D11A4600E02A461E49091FD3
:100BD0000A602BE0B94213D0614517D0494522D0B5
:100BE00051451DD059451DD0714501D142461AE0ED
:100BF000B14202D14FF0807215E0134EB14201D1E3
:100C0000012210E0104E1436B14201D110220AE048
:100C10000D4E2836B14206D00B4A3C32914201D1EA
:100C20001A4600E02A46074980394A60012180F8C7
:100C30002110002180F82010416B01B18847204627
:100C4000BDE8F09F80000240080402402DE9F05FFB
:100C5000C16B0A6801680B68046C4FF0040808FA5D
:100C600004F8844D844E854FDFF814C2DFF81492E7
:100C7000DFF814A2DFF814B2DFF814E218EA020F6A
:100C800065D05FEA437862D50A68920603D40A68A1
:100C900022F004020A60DFF8F0814FF480620168FC
:100CA00008F1140813011402414524D9A9420DD0BA
:100CB000B1420FD0B9421AD0614515D0494515D07F
:100CC000514501D1120312E0594501D104220EE031
:100CD000714501D140220AE06D4D1435A94206D07C
:100CE0006B4A2832914201D11A4600E022466749F8
:100CF000091F0A6029E0A94213D0B14215D0B942B8
:100D000020D061451BD049451BD0514502D14FF43D
:100D1000800217E0414502D14FF0806212E0594550
:100D200001D104220EE0714501D140220AE0584D64
:100D30001435A94206D0564A2832914201D11A46AA
:100D400000E022464B4908394A60C16A71E04FF021
:100D5000020808FA04F818EA020F70D05FEA8378F4
:100D60006DD50A68920606D40A6822F00A020A6063
:100D7000012180F82110DFF810814FF40072016822
:100D800008F1140813011402414524D9A9420DD0D9
:100D9000B1420FD0B9421AD0614515D0494515D09E
:100DA000514501D1120312E0594501D102220EE052
:100DB000714501D120220AE0354D1435A94206D0F3
:100DC000334A2832914201D11A4600E022462F4987
:100DD000091F0A6029E0A94213D0B14215D0B942D7
:100DE00020D061451BD049451BD0514502D14FF45D
:100DF000001217E0414502D14FF0007212E0594550
:100E000001D102220EE0714501D120220AE0204DDD
:100E10001435A94206D01E4A2832914201D11A4601
:100E200000E02246134908394A60002180F820106A
:100E3000816A00291CD0BDE8F05F0847FFE708255C
:100E4000A540154214D01A0712D50A6822F00E02E6
:100E50000A6090F84020C36B012101FA02F25A6047
:100E6000816380F82110002180F82010016BE0E7F9
:100E7000BDE8F09F080002401C0002403000024024
:100E800044000240580002406C0002400804024046
:100E90001C04024030B560B11A4B026814219A421A
:100EA00009D2194B1344B3FBF1F1890001641749CE
:100EB0000AE0012030BD134B5B421344B3FBF1F158
:100EC000890001640F490839C163022180F82110AB
:100ED000136843F6F0718B43F0E901142143D0E924
:100EE00002452C4321430469214344692143846919
:100EF00021431943116000214163012242770177A8
:100F0000084630BD08040240F8FFFDBF0000024063
:100F100070B5044690F82000002501280CD001206F
:100F200084F8200094F821600020012E06D084F877
:100F300020000225284670BD022070BD022684F8DC
:100F40002160A0632068066826F00106066020463E
:100F5000FFF70EFCE06A00282068016802D041F02B
:100F60000E0106E021F0040101602068016841F0F3
:100F70000A0101602068016841F001010160D9E7C0
:100F80002DE9F84FDFF8C891002409F1040A0AF1AD
:100F9000040B23460F270BF1040ED1E00125A540D9
:100FA00006EA0502AA4276D1DFF8A8C14E68A6EB90
:100FB0000C0866452BD00DDC032E34D005DC36B38F
:100FC000012E19D0022E2FD11BE0112E16D0122E79
:100FD0002AD119E0B8F5881F19D006DCB8F5803F92
:100FE00015D0B8F5801F1FD111E0B8F5001F0ED045
:100FF000B8F5041F18D10AE0CB6815E0CB681B1DBB
:1010000012E0CB6808330FE0CB680C330CE08B6840
:101010002BB1012B4FF0080303D0456104E00423FA
:1010200002E0056100E00023FF2A01D8064601E046
:1010300000F104064FEA840501D9A5F12005D6F890
:10104000008007FA05FC28EA0C0803FA05F548EACF
:101050000508C6F800804D68ED0070D53E4DAE69BC
:1010600046F00106AE61AD6924F0030605F0010506
:1010700000953A4D06EB050CDCF80850A607360F34
:1010800007FA06F825EA0805DFF8D480404503D1C1
:101090004FF0000825E052E0DFF8C880404502D15B
:1010A0004FF001081DE0DFF8C080404502D14FF04D
:1010B000020816E0DFF8B480404502D14FF0030883
:1010C0000FE0DFF8AC80404502D14FF0040808E0A3
:1010D000DFF8A080404502D14FF0050801E04FF055
:1010E000060808FA06F848EA0508CCF808804D68B2
:1010F000D9F80060ED034D4601D5164300E0964354
:101100002E604D68DAF80060AD03554601D51643F0
:1011100000E096432E604D68DBF80060ED025D460E
:1011200001D5164300E096432E604D68DEF800605E
:10113000AD02754601D5164300E096432E60641C4F
:101140000A681646E2407FF429AFBDE8F88F000038
:101150000004014000001110001002400000014096
:1011600000080140000C0140001001400014014043
:1011700000180140001C01400AB1016170470904D8
:10118000FBE700000148806870470000C4040020AD
:10119000024881680278114481607047C4040020CD
:1011A000074810B5016841F010010160032000F00C
:1011B00075F80F2000F006F800F024F8002010BDAC
:1011C0000020024070B50D4D04464FF47A71287826
:1011D000B1FBF0F00A490968B1FBF0F000F0ECFA5D
:1011E00048B9102C07D200222146501E00F036F8D4
:1011F00000206C6070BD012070BD0000C4040020A0
:10120000D00400200C4808B5816941F001018161DA
:10121000816901F001010091C16941F08051C16112
:10122000C06900F0805000900448416821F0E061FE
:1012300041F00071416008BD001002400000014013
:10124000002809DB00F01F020121914040098000C5
:1012500000F1E020C0F8001170470000F0B40E4B20
:101260001B680C46C3F30223C3F10705042D00D904
:101270000425191D072901D2002300E0DB1E0126E9
:1012800006FA05F1491E214099409E40761E1640FF
:101290003143F0BC01F0B4BE0CED00E0064900F0B3
:1012A000070208684FF6FF03184040EA0220034A8D
:1012B00010430860704700000CED00E00000FA05E4
:1012C0002DE9F0470F46050061D0434E306800F02D
:1012D0000700B84209D2306820F007003843306078
:1012E000306800F00700B84251D128683B4C8107B4
:1012F00012D5400703D5606840F4E060606028784C
:10130000000703D5606840F4605060606068A968B9
:1013100020F0F000084360602878C00728D0686893
:10132000012810D02168022810D0890700292EDA60
:10133000616821F0030101436160FFF723FF8046EC
:1013400041F288390DE021688903EFE78901EDE773
:10135000FFF718FFA0EB0801494502D90320BDE8BB
:10136000F0876068696800F00C00B0EB810FEFD186
:10137000306800F00700B8420BD9306820F0070051
:1013800038433060306800F00700B84201D00120D7
:10139000E5E72878400705D56068E96820F4E06053
:1013A000084360602878000706D56068296920F442
:1013B000605040EAC100606000F038F86168084A97
:1013C000C1F30311515CC840064908600648006833
:1013D000FFF7F8FE0020C2E70020024000100240A4
:1013E00094340008D0040020C804002004480549B3
:1013F00000684968044AC1F30221515CC840704743
:10140000D004002000100240A4340008044805491C
:1014100000684968044AC1F3C221515CC840704762
:10142000D004002000100240A434000812A185B0AE
:101430000FC98DE80F0014A0144A00680490516889
:10144000134801F00C03042B10D0082B0ED1C1F36C
:101450008343C9031DF803000AD5516804AAC1F3E8
:101460004041515C0A4A5043B0FBF1F005B070476F
:1014700008494843FAE70000020304050607080983
:101480000A0B0C0D0E0F101001020000001002409C
:1014900000127A0000093D002DE9F84F040070D0D9
:1014A0002078C04DC00749D06868C0F3810001288A
:1014B00007D06868C0F38100022809D16868C003BA
:1014C00006D52868800339D560680028E7D035E064
:1014D0006068B0F5803F0BD010B1B0F5A02F11D0EF
:1014E000286820F480302860286820F4802002E0FA
:1014F000286840F480302860606890B1FFF742FEB1
:1015000006460AE0286840F480202860F0E700BF23
:10151000FFF738FE801B642873D828688003F7D54E
:101520000CE0FFF72FFE064605E000BFFFF72AFE9E
:10153000801B6428F0D828688003F7D420789A4E5E
:1015400080074FF001094FF0000839D5686810F0A6
:101550000C0F07D06868C0F38100022809D16868C1
:10156000C00306D42868800714D52069012808D153
:1015700010E02069B0B1C6F80090FFF703FE0746FF
:1015800005E00AE1FFF7FEFDC01B0228C4D8286869
:101590008007F7D52868616920F0F80040EAC100AB
:1015A00028600DE0C6F80080FFF7ECFD074604E078
:1015B000FFF7E8FDC01B022823D828688007F7D46E
:1015C000207800072CD57948A169D9B1C0F80090DE
:1015D000FFF7D8FD074604E0FFF7D4FDC01B022843
:1015E0000FD8686A8007F7D571484FF4FA51006840
:1015F000B0FBF1F0009000BF0098411E0091FAD2BC
:101600000EE080E0C0F80080FFF7BCFD074604E074
:10161000FFF7B8FDC01B022875D8686A8007F7D4A9
:101620002078400760D5E8690027C00008D4E86941
:1016300040F08050E861E869012700F08050009098
:101640005C480168C90513D40168834641F4807180
:101650000160FFF797FD824606E000BFFFF792FDAD
:10166000A0EB0A0064284ED8DBF80000C005F5D5D1
:10167000E06801280AD008B1052813D0286A20F0B4
:1016800001002862286A20F0040002E0286A40F085
:1016900001002862E06841F2883B98B1FFF772FDD3
:1016A00082460BE0286A40F004002862EEE700BFA3
:1016B000FFF768FDA0EB0A0159455AD8286A800750
:1016C000F6D50CE0FFF75EFD824605E0FFF75AFD18
:1016D000A0EB0A0159454CD8286A8007F6D41FB1FF
:1016E000E86920F08050E861E06988B36968C1F377
:1016F0008101022944D00228C6F8608004D0FFF797
:1017000041FD044638E034E0FFF73CFD074604E0C5
:10171000FFF738FDC01B02282BD828688001F7D4BA
:10172000206AB0F5803F05D16868A16820F40030D8
:1017300008436860D4E908010843696821F474111A
:1017400008436860C6F86090FFF71CFD044606E099
:1017500025E000BFFFF716FD001B022809D8286806
:101760008001F7D51BE000BFFFF70CFD001B02282E
:1017700002D90320BDE8F88F28688001F4D40EE078
:101780000128F7D06868226A00F48031914204D1C0
:10179000616A00F47010884201D00120EAE700205D
:1017A000E8E700000010024000004242800442428C
:1017B000D00400200070004010B5401EB0F1807FC2
:1017C00001D3012010BD4FF0E02460610F216017AC
:1017D00001F016FC0020A06107202061002010BD50
:1017E0007047704770B590F83C20012A2CD0012436
:1017F00080F83C40022280F83D2003685A689D68CA
:1018000022F070060A6832435A60104B02689A420E
:101810000ED00F4B9A420BD0B2F1804F08D00D4B37
:101820009A4205D00C4B9A4202D00C4B9A4204D1FA
:10183000496825F080031943916080F83D400021FC
:1018400080F83C10084670BD022070BD002C01409D
:10185000003401400004004000080040000C00403B
:1018600010B5040003D094F83D0010B107E001204A
:1018700010BD002084F83C00204600F01FF8022034
:1018800084F83D00211D206801F040F8012084F813
:10189000460084F83E0084F83F0084F8400084F855
:1018A000410084F8420084F8430084F8440084F83E
:1018B000450084F83D00002010BD000008B5006818
:1018C0000B49884212D10B48C16941F02001C16126
:1018D000C069002200F02000009011463720FFF779
:1018E000BDFCBDE808403720FFF7AABC08BD0000DA
:1018F000001400400010024090F83D10012901D072
:1019000001207047022180F83D100168CA6842F04A
:101910000102CA6000680E4988420ED00D49884213
:101920000BD0B0F1804F08D00B49884205D00B494D
:10193000884202D00A49884204D1816801F0070137
:10194000062903D0016841F00101016000207047C1
:10195000002C014000340140000400400008004019
:10196000000C0040704770B50446006801694FF0F4
:101970000005C943890715D4C168C943890711D433
:10198000E91E0161012020772068806980072046D8
:1019900002D0FFF7E7FF04E000F0D0F8204600F0A7
:1019A00073F9257720680169C943490717D4C168CD
:1019B000C943490713D46FF0040101610220207765
:1019C0002068806910F4407F204602D0FFF7CAFFEC
:1019D00004E000F0B3F8204600F056F925772068BF
:1019E0000169C943090716D4C168C943090712D45C
:1019F0006FF008010161042020772068C06980072A
:101A0000204602D0FFF7AEFF04E000F097F8204632
:101A100000F03AF9257720680169C943C90617D44F
:101A2000C168C943C90613D46FF0100101610820D1
:101A300020772068C06910F4407F204602D0FFF76D
:101A400091FF04E000F07AF8204600F01DF92577B8
:101A500020680169C943C90708D1C168C943C907DA
:101A600004D1891E0161204600F06AF920680169ED
:101A7000C943090609D4C168C943090605D46FF0F2
:101A8000800101612046FFF7ABFE20680169C94370
:101A9000490609D4C168C943490605D46FF040011D
:101AA0000161204600F072F920680169C943890686
:101AB0000BD4C168C943890607D46FF020010161C6
:101AC0002046BDE87040FFF78CBE70BD10B586B0F3
:101AD000002100910191029103910068134988420D
:101AE00021D11348816941F004018161816901F0CC
:101AF00004010491816941F0080181618069022437
:101B000000F008000490C020CDE9000469460948AF
:101B10000394FFF735FA0320CDE90004694606482F
:101B20000394FFF72DFA06B010BD0000000400403A
:101B30000010024000080140000C0140704770B5E1
:101B4000044690F83C000D4601280AD0012084F894
:101B50003C0042B1042A18D0082A2AD00C2A4DD1C0
:101B600039E0022070BD206800F024FF2068816900
:101B700041F0080181612068816921F004018161DF
:101B8000206881692A69114311E0206800F042FF52
:101B90002068816941F4006181612068816921F4D4
:101BA00080618161206881692A6941EA022181613D
:101BB00024E0206800F064FF2068C16941F008015A
:101BC000C1612068C16921F00401C1612068C16957
:101BD0002A69114311E0206800F086FF2068C1697E
:101BE00041F40061C1612068C16921F48061C16173
:101BF0002068C1692A6941EA0221C161002084F894
:101C00003C0070BD10B5040003D094F83D0010B145
:101C100007E0012010BD002084F83C00204600F0C1
:101C20001FF8022084F83D00211D206800F06EFEA0
:101C3000012084F8460084F83E0084F83F0084F8D0
:101C4000400084F8410084F8420084F8430084F89E
:101C5000440084F8450084F83D00002010BD0000D9
:101C600008B500680649884208D10648C16941F0B4
:101C70000201C161C06900F00200009008BD0000CF
:101C800000040040001002407047000010B50446F8
:101C9000022249B104290ED0082913D094F841003A
:101CA000012816D0012010BD94F83E000128F9D17A
:101CB00084F83E200FE094F83F000128F2D184F828
:101CC0003F2008E094F840000128EBD184F8402040
:101CD00001E084F841200122206800F05DFE1349F4
:101CE0002068134A884201D0904203D1436C43F4E8
:101CF00000434364206888420DD090420BD0B0F17D
:101D0000804F08D00B49884205D00B49884202D049
:101D10000A49884204D1816801F00701062903D0ED
:101D2000016841F001010160002010BD002C01405C
:101D3000003401400004004000080040000C004056
:101D4000104910B588421CD10F4C60681E2801D183
:101D5000002060600C4900EB4000103101EB800076
:101D600090E80E000848083000F032FD06480830C0
:101D700000F024FD0448083001F0FAF86068401CC7
:101D8000606010BD34050020040000207047000092
:101D900010B5184800F039F8174800684068C0F1DD
:101DA0000700C1B215480278A52A07D180795A28C0
:101DB00004D11248001FD0F8052002600F48FEF73A
:101DC000ECF90E48001F0078062806D0BDE8104048
:101DD00007220A49074800F0FDB9BFF34F8F0848B2
:101DE0000168084A01F4E06111430160BFF34F8FBD
:101DF00000BFFDE7C005002004060020D804002035
:101E00000CED00E00400FA05704710B504460068C8
:101E1000416994F83D20C1F3C011212A0BD151B181
:101E2000416921F080014161606B08B1FEF752FE0B
:101E3000204600F000FF2068416994F83E20C1F37D
:101E40008011222A0BD151B1416921F04001416139
:101E5000A06B08B1FEF73EFE204600F0D4FE002045
:101E600010BD7047F8B5026804461068D168536920
:101E700010F00F0F4FF0000553D003F0010601F4EE
:101E8000907737435FD0C20705D0CA0503D5226CCF
:101E900042F001022264420705D5DA0703D0226C22
:101EA00042F002022264820705D5DA0703D0226CD1
:101EB00042F004022264020707D501F020023243F7
:101EC00003D0226C42F008022264226C002A34D033
:101ED000800604D5880602D5204600F0B5FE2068AD
:101EE0004069216CC0F38010090700D430B320464C
:101EF00000F089FE2068416949061BD5416921F03F
:101F000040014161A06BA8B158494163A06BFEF745
:101F100005FE002811D0A06B416B01B0BDE8F04078
:101F2000084783060FD58B060DD52046BDE8F8403F
:101F300000F08ABE2046FFF794FFF8BD2046FFF769
:101F400090FF2564F8BD266B2023012E52D1C606D2
:101F500050D5CE064ED510685068009050694006A6
:101F60002AD5A16B086840680004000CEAD0A68D51
:101F70008642E7D9E0858869202818D0D06820F407
:101F80008070D0602068416921F0010141612068C2
:101F9000416921F04001416184F83E3025632068A9
:101FA000C16821F01001C160A06BFEF793FDA08D08
:101FB000E18D401A81B219E0A08DE18D401A81B205
:101FC000E08D0028BED00029BCD0D06820F49070ED
:101FD000D0602068426922F00102426184F83E30FC
:101FE00025632068C26822F01002C2602046FFF715
:101FF0000BFFF8BD05062BD50D0629D594F83D003D
:102000002128F6D1A068B0F5805F01D12069B0B178
:10201000206A411C2162216800784860E08C401EE3
:102020000004000CE084E4D12068C16821F0800144
:10203000C1602068C16841F04001C160F8BD206AFC
:102040000088C0F308005060206A801C2062E5E729
:102050004006F3D54806F1D5D168204621F040016D
:10206000D16084F83D3000F026F9F8BD392B000826
:1020700070B5040004D094F83D00002510B106E0CE
:10208000012070BD84F83C50204600F023F8242045
:1020900084F83D002068C16821F40051C1602046E9
:1020A00000F02EFE2068016921F490410161206852
:1020B000416921F02A0141612068C16841F4005161
:1020C000C1602564202084F83D0084F83E00002093
:1020D00070BD0000F0B585B0002400940194029416
:1020E000039406460368344F022034490322450214
:1020F000BB4221D18B6943F480438B618B6903F42C
:10210000804304938B6943F004038B6189692C4EEF
:1021100001F0040104910102CDE900100392694627
:102120003046FEF72DFFCDE9005469463046029453
:10213000FEF726FF05B0F0BD224FBB42FAD1CB69B6
:1021400043F48023CB61CB6903F4802304938B6930
:1021500043F008038B61896901F00801CDE903218F
:10216000CDE90050184D69462846FEF709FFE814EE
:10217000CDE90004694628460294FEF701FF144D9C
:102180001248C5E900048020C5E902402C616C6159
:10219000AC612846EC61FEF77DFE08B1FEF7FEFA61
:1021A000B5630022114627206E62FFF757F82720FB
:1021B000FFF746F8BEE7000000380140001002407B
:1021C0000008014000480040000C0140300002407F
:1021D0000406002090F83E30202B0ED159B152B1A8
:1021E00090F83C30012B08D0012380F83C300023CC
:1021F000036300F0E1BD0120704702207047704783
:10220000704700002DE9F843044690F83D001F4652
:1022100016460D4620284CD1C5B1BEB194F83C00FD
:10222000012846D0012084F83C004FF00008C4F893
:102230004080212084F83D00FEF7A4FFA68481465B
:10224000E684A068B0F5805F03D004E00120BDE81B
:10225000F883206928B12E465FF0000584F83C80A1
:102260000EE00026FAE78021204600F0DDFDA0B94F
:10227000AEB116F8010B21684860E08C401EE08486
:10228000E08C4B464FF0000200970028EBD14FF056
:102290004001204600F0C8FD30B10320D7E735F8F3
:1022A000020BC0F30800E6E7202084F83D00002080
:1022B000CDE70220CBE77047FEE700007FB50021A5
:1022C0002148009101910291826942F40072826179
:1022D00080691E4A00F4007003901D480124032504
:1022E000026092158260047304754FF460220561E8
:1022F000C2614160FEF7D6FA08B1FEF74FFA0A2034
:10230000CDE900040524694611480294FEF748FA15
:1023100008B1FEF743FA0B2000900220CDE901043A
:1023200069460B48FEF73CFA08B1FEF737FA0D2074
:10233000CDE90005694602940548FEF731FA002808
:1023400001D0FEF72BFA7FBD0010024000240140AF
:1023500048060020174800B5416993B041F00101DB
:102360004161406900F00100119013480090002085
:1023700001900290802003908000049080000590DE
:1023800020200690000207906846FEF783FD08B102
:10239000FEF704FA0948032200F13001C0F820D00A
:1023A0000990FEF711FB002801D0FEF7F7F913B0F2
:1023B00000BD000000100240080002404806002056
:1023C0000B4800B5816985B041F0100181618069D9
:1023D000694600F0100004900020029003900F2046
:1023E0000090032001900348FEF7CAFD05B000BD30
:1023F0000010024000100140094808B5416941F051
:10240000010141614069002200F001000090114685
:102410000D20FEF723FFBDE808400D20FEF710BF9A
:10242000001002402DE9F04786B00025394800959C
:10243000019502950395816941F0100181618169DF
:1024400001F010010491816941F0200181618169ED
:1024500001F020010491816941F0040181618169E9
:1024600001F004010491816941F0080181618069F2
:10247000DFF8A48000F008000490002230214046DC
:10248000FEF77AFEDFF894900022F0214846FEF72E
:1024900073FEDFF88CA04CF2180700223946504634
:1024A000FEF76AFE4EF20F00CDE9000501246946F1
:1024B00002944846FEF764FD3020CDE9000403266F
:1024C000CDE9024669464046FEF75AFDF020CDE9C7
:1024D0000004CDE9024669464846FEF751FD242036
:1024E000CDE90005694602945046FEF749FDCDE965
:1024F0000074CDE9024669465046FEF741FD0420CE
:10250000CDE90005694602940648FEF739FD06B09C
:10251000BDE8F087001002400008014000100140B3
:10252000000C01400014014010B58AB0002407944B
:102530001C2168460894FDF730FE234821490160BC
:102540004721C0E9011440F2E731C0E90314846176
:10255000FFF758FB08B1FEF721F9079407A91A48BD
:102560000894FFF73FF908B1FEF718F97020CDE99C
:102570000004022002900022694604941248FFF7EA
:10258000DEFA08B1FEF70AF9042269460E48FFF7A1
:10259000D6FA08B1FEF702F9082269460A48FFF7A1
:1025A000CEFA08B1FEF7FAF80C2269460648FFF7A2
:1025B000C6FA08B1FEF7F2F80348FFF787FA0AB047
:1025C00010BD000000040040EC0400201CB50024F5
:1025D0000F4800940D490194016041F61F41C0E984
:1025E000011440F25D118461C160FFF739F908B14F
:1025F000FEF7D4F80094694605480194FFF7F2F815
:10260000002801D0FEF7CAF81CBD000000140040ED
:10261000340500200C4810B50A4901604FF4E1313F
:102620004160002181600C22C160C0E90412816117
:10263000C161FFF71DFD002803D0BDE81040FEF783
:10264000ADB810BD003801407C0500200C4810B525
:102650000A4901604FF416514160002181600C224B
:10266000C160C0E904128161C161FFF701FD00286A
:1026700003D0BDE81040FEF791B810BD00480040FF
:10268000C0050020FEE74FF47A71884202DC49421F
:10269000884200DA084670472DE9F0470E46154695
:1026A0000746A0EB060808EB0500FFF7ECFF040067
:1026B0003B484FF480414FF4004A05D40022814644
:1026C000FEF75AFD012204E001228146FEF754FD87
:1026D000002251464846FEF74FFD002C00DA6442C6
:1026E000DFF8C090D9F800000464A8EB0500FFF7FC
:1026F000CAFF04002C4806D4012210218046FEF7B0
:102700003BFD002205E0002210218046FEF734FD4B
:10271000012220214046FEF72FFD002C00DA644202
:10272000D9F80000C846446337447819FFF7ABFF77
:102730001E4E040006D4012210213046FEF71CFD77
:10274000002205E0002210213046FEF715FD01228F
:1027500020213046FEF710FD002C00DA6442D8F844
:1027600000008463781BFFF78EFF040006D401226B
:1027700040213046FEF700FD002205E00022402106
:102780003046FEF7F9FC012280213046FEF7F4FCCA
:10279000002C00DA6442D8F80000C463BDE8F0877A
:1027A000000C0140EC040020000801400010014032
:1027B000FEE77047002101604160704770B5044634
:1027C0000068002803D0C56800F0CAFD256070BD10
:1027D0002DE9F04105460E4617469846102000F0B8
:1027E00023FE040002D108A000F0FAFB0020C4E997
:1027F0000280C4E90067286820B16868C4606C6022
:10280000BDE8F0812C60FAE757726F6E670A00002E
:102810002DE9FC47184D8146184F2888A988401A91
:10282000FA3806B23E807888301A00B2FDF7D9FD3A
:102830000022134BFDF763FD044688463046FDF742
:10284000D0FD00220F4BFDF75AFD43462246FDF70F
:10285000AFFCFDF7D7FD00B2414200224846FFF72A
:102860001BFF38887880CDE9004895E80E0006A067
:1028700000F0B6FBBDE8FC877806002004000020CD
:102880000000F83FD7A3E83F25642C25642C25647D
:102890002C25640A000000007047FEF779BC30B5B3
:1028A0008FB028216846FDF778FC14210AA8FDF7AF
:1028B00074FC01210804CDE90010002402940225D3
:1028C0000491CDE907504FF4E01009906846FEF7F7
:1028D000E3FD08B172B6FEE70F20CDE90A054FF41B
:1028E0008060CDE90C4002210AA80E94FEF7E8FCB6
:1028F000002801D072B6FEE70FB030BD704700006F
:102900000148FFF730B8000034050020F0B5026838
:102910001C4B1D4D1D4E1E4F1E4C4FF0804C9842BF
:1029200009D0A04207D0604505D0A84203D0B042EC
:1029300001D0B84204D122F0700E4A6842EA0E0279
:10294000984209D0A04207D0604505D0A84203D0E4
:10295000B04201D0B84203D122F44075CA682A437C
:102960004D6922F080022A4302608A68C2620A68C6
:102970008262984201D0A04201D10969016301211C
:102980004161F0BD002C01400004004000080040FF
:10299000000C00400034014010B501F01F0301217C
:1029A000046A99408C430462016A9A4011430162AF
:1029B00010BD0000F0B5026A22F001020262036A53
:1029C00042688469124E24F073050C682C4323F08E
:1029D00002058B682B430D4DA84201D0B04205D1B2
:1029E00023F00807CB683B4323F00403A84201D03F
:1029F000B04205D14D6922F4407215438A692A43D9
:102A000042608461496841630362F0BD002C01406B
:102A100000340140F0B5026A22F010020262026A3C
:102A2000436884690D6824F4E64444EA05248D680B
:102A300022F0200242EA05120F4D104EA84201D0AA
:102A4000B04206D1CF6822F0800242EA071222F09B
:102A50004002A84201D0B04207D14D6923F440633F
:102A600043EA85038D6943EA8503436084614968CD
:102A700081630262F0BD0000002C0140003401407F
:102A8000F0B5026A22F480720262026A4368C46985
:102A900022F4007224F073050C68124E2C438D68EA
:102AA00042EA05220E4DA84201D0B04206D1CF68BD
:102AB00022F4006242EA072222F48062A84201D096
:102AC000B04207D14D6923F4405343EA05138D69A1
:102AD00043EA05134360C4614968C1630262F0BD03
:102AE000002C01400034014030B5026A22F48052CB
:102AF0000262046A4268C3690D6823F4E64343EA4C
:102B000005238D6824F4005444EA0534084DA84296
:102B100002D0084DA84204D14D6922F4804242EA15
:102B200085124260C36149680164046230BD0000DF
:102B3000002C01400034014010B5406A0021C185DD
:102B4000C184FFF78EF910BD70B5446A20684069F2
:102B500094F83D10C0F3C0100025212904D118B10C
:102B6000E584204600F067F82068406994F83E103C
:102B7000C0F38010222904D118B1E585204600F069
:102B800042F8206C40F0100020642046FFF769F9FD
:102B900070BD10B50146406A0968096889061BD4F2
:102BA0000021C1850168CA6822F48072CA60016888
:102BB0004A6922F001024A6101684A6922F0400232
:102BC0004A61202180F83E10016B012904D101687F
:102BD000CA6822F01002CA60016B012902D0FFF717
:102BE0000EFB10BD818DFFF70FF910BD10B5406AC7
:102BF000016B012902D0FFF703FB10BD818D49084D
:102C0000FFF702F910BD0168CA6822F49072CA6029
:102C100001684A6922F001024A61016B012904D16D
:102C20000168CA6822F01002CA60202180F83E10B4
:102C30000021016370470168CA6822F0C002CA60BF
:102C4000202180F83D10704708B590F83E102229E9
:102C500001D0022008BD82684FF480539A4201D10E
:102C6000016921B1816A9A421BD04AB10AE0026827
:102C7000816A5268C2F308020A80816A891C08E0EE
:102C8000026972B10268526802F07F020A70816ABA
:102C9000491C8162C18D491E0904090CC18503D0FC
:102CA00019E002685268F1E70168CA6822F0200260
:102CB000CA600168CA6822F48072CA6001684A6901
:102CC00022F001024A61202180F83E10016B0129A7
:102CD00003D0FFF794FA002008BD002101630168CA
:102CE000CA6822F01002CA6001680A68D20602D5DA
:102CF0000A6849680091818DFFF786F8EBE70000CC
:102D000070B5044600680169E26821F4405111433E
:102D100001612169A0680843616908432168CA68A4
:102D200041F20C639A430243CA6020684169A26978
:102D300021F44071114341611E492068884202D14B
:102D4000FEF764FB01E0FEF751FB00EBC00101EB75
:102D50000012606864218000B2FBF0F3B3FBF1F372
:102D60006FF018067343B2FBF0F5B2FBF0F605EB1B
:102D70008305322303EB0515B5FBF1F5B6FBF1F640
:102D800005F0F00505EB0615B2FBF0F6B2FBF0F02E
:102D9000B0FBF1F06FF01802504306EB800003EB3C
:102DA0000010B0FBF1F0216800F00F0028448860AB
:102DB00070BD00000038014038B581628285002571
:102DC000134604460564222084F83E00A26B134893
:102DD0009062A26B1248D062A26B12481063A06B83
:102DE0000A4645632168A06B091DFEF791F820682B
:102DF00001684168009184F83C50C16841F48071D9
:102E0000C1602068416941F0010141612068416968
:102E100041F040014161002038BD0000932B0008C3
:102E2000ED2B0008492B00082DE9F0419846174684
:102E30000E460446069D1DE0681C1BD02DB1FEF712
:102E4000A1F9A0EB0800A84214D92068C16821F4B8
:102E5000D071C1602068416921F0010141612020E9
:102E600084F83D0084F83E00002084F83C000320F4
:102E7000BDE8F0812068006836EA000004D0002038
:102E8000B842D9D00020F3E70120F9E710B5054892
:102E9000FEF7E8FF034800F009F803490120087035
:102EA00010BD0000C0050020000000200849094AAC
:102EB00082B00968914209D10A68D243D20605D48A
:102EC0000A684968009102B0FEF762BF02B070471D
:102ED000C005002000480040FEE7000010B5084C87
:102EE000012211462046FEF747F900220121204623
:102EF000FEF742F90120401C0728FCDD10BD000050
:102F00000008014010B5084C012211462046FEF78A
:102F100033F90121491C0729FCDD20460022BDE8C8
:102F200010400121FEF728B900080140012048F6B1
:102F3000A041401C8842FCDD704700001FB5012005
:102F40000090019002900320084C039069462046AF
:102F5000FEF716F8002201212046FEF70DF90120A8
:102F600048F6A041401C8842FCDD1FBD000801401E
:102F700010B5046803E0204600F007F8E468002C70
:102F8000F9D1BDE81040FFF7D1BF70B544680546E0
:102F90000126E00702D0FFF7B5FF01E0FFF79EFF33
:102FA0006410761C082EF4DD2E680124F00702D090
:102FB000FFF7A8FF01E0FFF791FF7610641C082CD3
:102FC000F4DDAC680125E00702D0FFF79BFF01E0CC
:102FD000FFF784FF64106D1C082DF4DD70BD000048
:102FE0000FB4054B10B503A9044A029800F028F865
:102FF00010BC5DF814FB000049330008E004002019
:103000000907090E002804DB00F1E02080F8001415
:10301000704700F00F0000F1E02080F8141D7047A9
:1030200002E008C8121F08C1002AFAD17047704791
:10303000002001E001C1121F002AFBD170470000EF
:103040002DE9FF4F8DB09B460F460446002606E053
:1030500025280BD05A460F999047641C761C20787F
:103060000028F5D111B03046BDE8F08F0025A84604
:103070000122984900E0054314F8013F203B02FA81
:1030800003F00842F7D120782E2817D114F8010F49
:1030900045F004052A280ED06FF02F022078A0F109
:1030A000300109290AD808EB880102EB410100EB45
:1030B0000108641CF2E757F8048B641C20786C2824
:1030C0000DD004DC4C2812D06A2811D104E07428F9
:1030D0000DD07A280CD10AE045F4001507E061789C
:1030E00045F48015814202D1641C05F58015641CED
:1030F0002078692844D008DC0028B3D0582867D04D
:1031000063280FD0642808D13AE0702865D073286E
:1031100012D075285AD078285AD05A460F9990471D
:10312000761CD5E017F8040B8DF8000000208DF810
:103130000100E946012003E057F8049B4FF0FF30FF
:1031400069074FF0000501D40AE06D1C45450DDA12
:103150008542FADB19F805100029F6D106E06D1C4E
:103160008542FCDB19F805100029F8D12E4404E053
:1031700019F8010B5A460F9990476D1EF8D2A7E037
:103180000A200021CDE90801C5F3025002280CD025
:1031900001CFC117021E71F100020CDA0023D0EB3F
:1031A000030063EB01012D2208E0FF1D27F0070754
:1031B000F7E80201EEE72A0504D52B228DF8282036
:1031C00001223CE0EA073AD02022F7E70A2000E09B
:1031D00010200021CDE9080107E01020002145F072
:1031E0000405CDE908014FF00808C5F30250022894
:1031F00010D001CF00214FF0000A2A0720D52278F5
:10320000702A0DD0DDE908C38CF0100C5CEA030CC9
:103210000CD015E0FF1D27F00707F7E80201EAE7E9
:1032200040228DF828204FF0010A0CE050EA0103FB
:1032300006D030238DF828308DF8292002229246BE
:103240002278582A04D024A20DF120090B9209E01B
:1032500026A2F9E7DDE90823FDF7F3F80B9B9B5C59
:1032600009F8013D50EA0102F4D1ADEB090020302C
:103270000890680701D44FF001080899884503DDDC
:103280000898A8EB000000E000208046002506E03A
:103290000AA85A46405D0F9990476D1C761C55450B
:1032A000F6DB04E030205A460F999047761CB8F1BF
:1032B0000001A8F10108F5DC05E019F8010B5A46F8
:1032C0000F999047761C0899481E08900029F4DC55
:1032D000641CC4E6092801003031323334353637F6
:1032E0003839616263646566000000003031323352
:1032F00034353637383941424344454600000000F2
:1033000010B500210D48FEF7C1FC04210B48FEF763
:10331000BDFC08210948FEF7B9FC0C210748FEF75F
:10332000B5FC07480068C16841F01001C160BDE804
:103330001040072203490248FEF74CBFEC0400206E
:10334000C0050020D804002013B54FF47A73012281
:1033500069460248FEF756FF00981CBDC0050020D4
:1033600010B5002821D0114B0022001F196803E07E
:10337000814203D80A4649680029F9D152B113683D
:10338000841A9C4204D1006818441060104602E080
:10339000506000E0186039B102680B1A934203D103
:1033A0000B681A4402604968416010BDE4040020C3
:1033B000FDF7F6FEFFF773FAFFF734F8FFF71CF896
:1033C000FFF728F9FFF742F9FFF7AEF8FFF7FEF82D
:1033D000FEF774FFFEF7BEFFFEF7F2FFFFF790FF68
:1033E000FFF7ACFD0E48FFF7E5F90D4D0024083559
:1033F00004EB440005EB800090E80E000848FFF75E
:10340000E7F9641C1E2CF3DB0548FFF7B1FD054806
:10341000FEF772FA40F2EE242046FFF7F9F9FBE7D7
:103420000C00002034050020F0B50B30154D20F0C5
:1034300007010024144A0FE003688B420BD38B4230
:1034400005D95E1A43184768C3E9006700E043687E
:10345000136002C004E0021D10680028ECD1204671
:10346000002802D1286808B10020F0BD064A0748AC
:103470001060074A121A22F00702C0E90024012056
:103480002860D7E7E8040020E40400208C06002030
:10349000880A002000000000000000000102030470
:1034A000060708090000000001020304CC340008EC
:1034B00000000020EC040000C40500081C350008D2
:1034C000EC0400209C090000303000080114DAFFF1
:1034D0000C9AC80C9AFA0C9A960C9AE10C72AF29C5
:1034E00008694C2920690C2938690C295CE97009A4
:1034F000167C091270A964A97C290C09327C6970B8
:103500002934091EE0A964A90C0926F801FF01FF6E
:0C35100001FF014B32018210031924F46A
:0400000508000131BD
:00000001FF
